:020000040800F2
:1000000000000824413A0008F936000801370008CA
:1000100009370008113700081937000800000000F0
:1000200000000000000000000000000071D3000884
:100030002137000800000000C1D500082F37000854
:10004000913A0008913A0008913A0008913A000864
:10005000913A0008913A0008913A0008913A000854
:10006000913A0008913A0008913A0008913A000844
:10007000913A0008913A0008913A0008913A000834
:10008000913A0008913A0008913A0008913A000824
:10009000913A0008913A0008913A0008493700085F
:1000A000913A0008913A0008913A0008913A000804
:1000B000913A0008913A0008913A0008913A0008F4
:1000C000913A0008913A0008913A0008913A0008E4
:1000D000913A0008913A0008913A0008913A0008D4
:1000E0006D370008913A000800000000913A0008BE
:1000F000913A0008913A0008913A0008913A0008B4
:10010000913A0008913A0008913A0008913A0008A3
:10011000913A0008913A0008913A0008913A000893
:10012000913A0008913A0008913A0008913A000883
:10013000913A0008913A0008913A0008913A000873
:1001400000000000000000000000000000000000AF
:10015000913A0008913A0008913A0008913A000853
:10016000913A0008913A0008913A0008913A000843
:10017000913A0008913A0008913A00080000000006
:10018000913A0008913A0008913A0008913A000823
:10019000913A0008913A0008913A0008913A000813
:1001A000913A0008913A0008913A0008913A000803
:1001B000913A0008913A0008913A0008913A0008F3
:1001C000913A0008913A0008913A0008913A0008E3
:1001D000913A0008913A0008913A0008913A0008D3
:1001E000913A0008913A0008913A0008913A0008C3
:1001F000913A0008913A0008913A0008913A0008B3
:10020000913A0008913A0008913A0008913A0008A2
:10021000913A0008913A0008913A0008913A000892
:10022000913A0008913A0008913A00080000000055
:10023000913A0008913A000800000000913A000845
:10024000913A0008913A0008913A0008913A000862
:10025000913A0008913A0008913A0008913A000852
:10026000913A0008913A0008913A0008913A000842
:10027000913A0008913A0008913A00080000000005
:10028000913A0008913A0008913A000800000000F5
:0802900000000000913A000893
:1002A00010B5054C237833B9044B13B10448AFF3B0
:1002B00000800123237010BD2003002400000000F3
:1002C000D007010808B5034B1BB103490348AFF33E
:1002D000008008BD0000000024030024D0070108AE
:1002E00010F8012B11F8013B012A28BF9A42F7D0E0
:1002F000D01A70470000000000000000000000005D
:1003000001F0FF01102A2BDB10F0070F08D010F8C6
:10031000013B013A8B422DD010F0070F42B3F6D1CA
:10032000F0B441EA012141EA014122F007047FF0E3
:1003300000070023F0E80256083C85EA010586EA3A
:10034000010685FA47F5A3FA87F586FA47F6A5FA76
:1003500087F68EB9EED1F0BC01F0FF0102F0070282
:1003600032B110F8013B013A83EA010313B1F8D12D
:100370000020704701387047002D06BF354603380E
:10038000073815F0010F07D1013015F4807F02BF47
:10039000013015F4C03F0130F0BC0138704700BF98
:1003A000034613F8012B002AFBD1181A01387047B5
:1003B00053B94AB9002908BF00281CBF4FF0FF31CC
:1003C0004FF0FF3000F06AB9ADF1080C6DE904CED2
:1003D00000F006F8DDF804E0DDE9022304B0704720
:1003E0002DE9F047089D0C46002B4ED194468C45D4
:1003F0008646B2FA82F262D94AB1C2F12003914034
:1004000020FA03F30CFA02FC194300FA02FE4FEA49
:100410001C471FFA8CF6B1FBF7F44FEA1E4307FBAB
:10042000141143EA014304FB06F199420AD91CEB7B
:10043000030304F1FF3080F01281994240F20F81F2
:10044000023C6344591A1FFA8EF3B1FBF7F007FB25
:10045000101143EA014300FB06F69E420AD91CEB49
:10046000030300F1FF3180F0FC809E4240F2F980EE
:10047000634402389B1B40EA044000211DB1D34075
:100480000022C5E90032BDE8F0878B4205D90DB1E5
:10049000C5E9000100210846F5E7B3FA83F1002918
:1004A00046D1A34202D39042C0F0F080861A64EB9A
:1004B00003030120002DE6D0C5E90063E3E7002A2D
:1004C00040F09080A1EB0C044FEA1C481FFA8CF717
:1004D0000121B4FBF8F64FEA1E4308FB164443EA39
:1004E000044307FB06F0984208D91CEB030306F10E
:1004F000FF3402D2984200F2CD8026461C1A1FFA21
:100500008EF3B4FBF8F008FB104443EA044300FB0D
:1005100007F79F4208D91CEB030300F1FF3402D216
:100520009F4200F2B0802046DB1B40EA0640A5E770
:10053000C1F120068B4022FA06F71F4320FA06FC81
:1005400004FA01F343EA0C03F44000FA01F8380C12
:100550004FEA1349B4FBF0FE1FFA87FC00FB1E4470
:1005600049EA04440EFB0CF9A14502FA01F20AD94A
:100570003C190EF1FF3A80F08480A14540F2818061
:10058000AEF1020E3C44A4EB09041FFA83F9B4FB5C
:10059000F0F300FB134449EA044403FB0CFCA445BC
:1005A00007D93C1903F1FF3067D2A44565D9023B56
:1005B0003C4443EA0E40A0FB0293A4EB0C049C4293
:1005C000CE469C4651D34ED055B1B8EB0E0364EBEA
:1005D0000C0404FA06F6CB401E43CC40C5E9006487
:1005E000002150E7C2F1200320FA03F10CFA02FCCB
:1005F00024FA03F394400C434FEA1C4800FA02FE2D
:100600001FFA8CF7B3FBF8F008FB1031230C43EA18
:10061000014300FB07F1994208D91CEB030300F1E9
:10062000FF362CD299422AD9023863445B1AA4B20D
:10063000B3FBF8F108FB113344EA034401FB07F371
:10064000A34208D91CEB040401F1FF3613D2A342E4
:1006500011D902396444E41A41EA004139E70446F9
:10066000F0E6084606E7C845AED2B9EB020E63EBEA
:10067000070C0138A8E73146EDE7034699E7304615
:10068000D4E7D6467FE7634402384DE70646234663
:1006900008460FE7023E634430E700BF704700BFE3
:1006A00080B5C0B000AFF860381D80E8060007F5DF
:1006B0008072A2F5807213600023C7F8E430C84B43
:1006C000C7F8E830BB68C7491846FFF709FE03467C
:1006D000002B40F004817B68C7F8FC3007F580737D
:1006E000A3F58073C04918680EF040F80346002B4C
:1006F00007D1D7F8FC300833C7F8E430BB4BC7F854
:10070000E83007F58073A3F58073B94918680EF0D7
:100710002DF80346002B07D1D7F8FC304033C7F83B
:10072000E430B24BC7F8E83007F58073A3F5807367
:10073000B04918680EF01AF80346002B07D1D7F815
:10074000FC307833C7F8E430AB4BC7F8E83007F536
:100750008073A3F58073A94918680EF007F8034663
:10076000002B08D1D7F8FC3003F5AC73C7F8E430A0
:10077000A14BC7F8E83007F58073A3F58073A04953
:1007800018680DF0F3FF0346002B08D1D7F8FC30B2
:1007900003F50E73C7F8E430974BC7F8E83007F558
:1007A0008073A3F58073974918680DF0DFFF034647
:1007B000002B08D1D7F8FC3003F54673C7F8E430B6
:1007C0008D4BC7F8E83007F58073A3F580738E4929
:1007D00018680DF0CBFF0346002B08D1D7F8FC308A
:1007E00003F57E73C7F8E430834BC7F8E83007F5AC
:1007F0008073A3F58073854918680DF0B7FF034631
:10080000002B08D1D7F8FC3003F59B63C7F8E43020
:10081000794BC7F8E83007F58073A3F580737C49FE
:1008200018680DF0A3FF0346002B08D1D7F8FC3061
:1008300003F5B763C7F8E4306F4BC7F8E83007F546
:100840008073A3F58073734918680DF08FFF03461A
:10085000002B08D1D7F8FC3003F5D363C7F8E43098
:10086000654BC7F8E83007F58073A3F580736A49D4
:1008700018680DF07BFF0346002B08D1D7F8FC3039
:1008800003F5EF63C7F8E430584BC7F8E83007F5D5
:100890008073A3F58073614918680DF067FF034604
:1008A000002B08D1D7F8FC3003F5F663C7F8E43025
:1008B0004E4BC7F8E83007F58073A3F580735849AD
:1008C00018680DF053FF0346002B08D1D7F8FC3011
:1008D00003F5FD63C7F8E430444BC7F8E830BB6864
:1008E00045491846FFF7FCFC0346002B4DD17B68B9
:1008F000C7F8F83007F58073A3F580734949186885
:100900000DF034FF0346002B06D1D7F8F830C7F8B6
:10091000E430364BC7F8E83007F58073A3F58073F1
:10092000414918680DF022FF0346002B07D1D7F884
:10093000F8303833C7F8E4302C4BC7F8E83007F507
:100940008073A3F58073394918680DF00FFF0346D3
:10095000002B07D1D7F8F8307033C7F8E430234BB9
:10096000C7F8E83007F58073A3F58073304918683D
:100970000DF0FCFE0346002B07D1D7F8F830A83362
:10098000C7F8E430194BC7F8E830BB681749184678
:10099000FFF7A6FC0346002B40F092807B68C7F867
:1009A000F43007F58073A3F58073224918680DF0C1
:1009B000DDFE0346002B07D1D7F8F4301033C7F81B
:1009C000E4301D4BC7F8E83007F58073A3F580735A
:1009D0001A4918680DF0CAFE0346002B37D12FE0E4
:1009E000E8070108EC070108F8070108FC070108FF
:1009F000040801080C080108100801081C08010877
:100A00002008010824080108280801082C0801080A
:100A100030080108340801083808010840080108B6
:100A2000480801085008010854080108580801083E
:100A30005C08010860080108640801086C080108E6
:100A4000D7F8F430C7F8E430544BC7F8E83007F56E
:100A50008073A3F58073524918680DF087FE034632
:100A6000002B07D1D7F8F4300833C7F8E4304B4BEC
:100A7000C7F8E83007F58073A3F580734949186813
:100A80000DF074FE0346002B07D1D7F8F4301C3369
:100A9000C7F8E430444BC7F8E83007F58073A3F596
:100AA0008073424918680DF061FE0346002B07D1A0
:100AB000D7F8F4302033C7F8E4303D4BC7F8E830BE
:100AC000BB683B491846FFF70BFC0346002B3AD1A5
:100AD0007B68C7F8F03007F58073A3F5807335495C
:100AE00018680DF043FE0346002B06D1D7F8F0300E
:100AF000C7F8E430304BC7F8E83007F58073A3F54A
:100B000080732E4918680DF031FE0346002B07D183
:100B1000D7F8F0300433C7F8E430274BC7F8E83093
:100B200007F58073A3F58073254918680DF01EFE44
:100B30000346002B07D1D7F8F0300833C7F8E4306C
:100B40001D4BC7F8E830BB6817491846FFF7C8FBCC
:100B50000346002B14D17B68C7F8EC3007F580738F
:100B6000A3F58073174918680DF000FE0346002BAB
:100B700006D1D7F8EC30C7F8E4300F4BC7F8E830AF
:100B8000FB681A4607F1E40393E8030082E80300D8
:100B9000F86807F58077BD4680BD00BF640801088E
:100BA00070080108740801087C080108840801081D
:100BB0008808010890080108980801089C080108A5
:100BC000A4080108A808010880B485B000AFF86047
:100BD00087ED000BFB6893ED027B97ED006BB4EEA5
:100BE000C76BF1EE10FA04DDFB68D3E90223C7E915
:100BF0000023FB6893ED007B97ED006BB4EEC76BB1
:100C0000F1EE10FA04D5FB68D3E90023C7E900230D
:100C1000F968D7E90023C1E90423FB68DB69012BEC
:100C20002ED1FB68DB6A002B2AD0FB68DB6A002B25
:100C300026D0FB685B6A002B03F00103B8BF5B4260
:100C4000FA680A339B0013445A68FB689B6ADB000E
:100C5000D118D7E90023C1E90023FB689B6A5A1C1D
:100C6000FB689A62FB681A6AFB689B6A9A4207DC17
:100C7000FB6800229A62FB685B6A5A1CFB685A6236
:100C800000BF1437BD465DF8047B704780B5ADF6F4
:100C9000180D00AFAF494FF00002AF4BC1E9002380
:100CA000AC4B08333822002118460DF056FDA949F7
:100CB0004FF00002A94BC1E90423A6494FF00002FE
:100CC0004FF08043C1E90623A24B40333822002174
:100CD00018460DF042FD9F4B03F5EF6338220021CB
:100CE00018460DF03AFD9B4B03F5F06319464FF0A3
:100CF00000029B4BC1E90023964B78333822002138
:100D000018460DF02AFD93494FF00002954BC1E9BA
:100D10001E2390494FF00002934BC1E920238D4BD5
:100D2000B0333822002118460DF017FD89494FF0E5
:100D300000028C4BC1E92C2386494FF000028A4BFC
:100D4000C1E92E23834BE8333822002118460DF0E9
:100D500004FD80494FF00002824BC1E93A237D49EE
:100D60004FF00002804BC1E93C237A4B03F59073AE
:100D70003822002118460DF0F0FC76494FF00002B1
:100D80007A4BC1E9482373494FF00002784BC1E91F
:100D90004A2370494FF00002744BC1E94C236D4B5C
:100DA00003F5AC733822002118460DF0D6FC6949D2
:100DB0004FF000026B4BC1E9562366494FF0000229
:100DC000694BC1E95823634B03F5C87338220021EE
:100DD00018460DF0C2FC5F494FF00002614BC1E9BB
:100DE00064235C494FF000025F4BC1E96623594B15
:100DF00003F5E4733822002118460DF0AEFC554986
:100E00004FF00002574BC1E9722352494FF00002E4
:100E1000554BC1E974234F4B03F500733822002171
:100E200018460DF09AFC4B494FF000024F4BC1E9B8
:100E3000802348494FF000024D4BC1E982234549C8
:100E40004FF00002494BC1E98423424B03F50E7376
:100E50003822002118460DF080FC3E494FF0000278
:100E6000404BC1E98E233B494FF000023E4BC1E9A4
:100E70009023384B03F51C733822002118460DF0DF
:100E80006CFC34494FF00002364BC1E99C233149D8
:100E90004FF00002344BC1E99E232E4B03F52A7319
:100EA0003822002118460DF058FC2A494FF0000264
:100EB0002C4BC1E9AA2327494FF000022A4BC1E974
:100EC000AC23244B03F538733822002118460DF06B
:100ED00044FC20494FF00002244BC1E9B8231D49CE
:100EE0004FF00002224BC1E9BA231A494FF0000229
:100EF0001E4BC1E9BC23174B03F546733822002172
:100F000018460DF02AFC13494FF00002154BC1E9B9
:100F1000C62310494FF00002134BC1E9C8230D4B03
:100F200003F554733822002118460DF016FC0949C8
:100F30004FF000020B4BC1E9D42306494FF00002E9
:100F4000094BC1E9D623034B03F562733822002114
:100F500018460FE0400300240000104000005940F4
:100F600000001C40000008C0000008400000F03FE6
:100F7000000049400DF0F1FBB8494FF00002B84BBA
:100F8000C1E9E223B5494FF00002B64BC1E9E423C1
:100F9000B24B03F570733822002118460DF0DDFBCB
:100FA000AE494FF00002B04BC1E9F023AB494FF01E
:100FB0000002AE4BC1E9F223A8494FF00002AA4B50
:100FC000C1E9F423A54B03F57E73382200211846AE
:100FD0000DF0C3FBA1494FF00002A14BC1E9FE2374
:100FE0009E4B03F5806319464FF000029D4BC1E90B
:100FF00000239A4B03F586633822002118460DF032
:10100000ACFB964B03F5866319464FF00002944BF8
:10101000C1E90023914B03F5886319464FF00002A4
:10102000904B41E902238D4B03F58D63382200215B
:1010300018460DF092FB894B03F58E6319464FF06D
:101040000002874B41E90223844B03F58E63194666
:101050004FF00002834BC1E90023804B03F59463FA
:101060003822002118460DF078FB7C4B03F5946381
:1010700019464FF000027C4BC1E90023774B03F582
:10108000966319464FF00002784B41E90223734BF7
:1010900003F5966319464FF00002734BC1E9002334
:1010A0006E4B03F59B633822002118460DF055FB6B
:1010B0006A4B03F59C6319464FF00002684B41E907
:1010C0000223664B03F59C6319464FF00002654B03
:1010D000C1E90023614B03F5A263382200211846C1
:1010E0000DF03BFB5D4B03F5A26319464FF0000288
:1010F0005B4BC1E90023594B03F5A46319464FF03C
:101100000002584B41E90223544B03F5A9633822EE
:10111000002118460DF021FB504B03F5AA63194638
:101120004FF000024E4B41E902234C4B03F5AA63FA
:1011300019464FF000024B4BC1E90023474B03F522
:10114000B0633822002118460DF007FB434B03F52E
:10115000B06319464FF00002434BC1E900233F4BF7
:1011600003F5B26319464FF00002404B41E90223F8
:101170003A4B03F5B26319464FF000023A4BC1E90E
:101180000023364B03F5B7633822002118460DF0D3
:10119000E4FA324B03F5B86319464FF00002304BC6
:1011A00041E902232D4B03F5B86319464FF00002C5
:1011B0002C4BC1E90023294B03F5BE6338220021E3
:1011C00018460DF0CAFA254B03F5BE6319464FF0D9
:1011D0000002234BC1E90023204B03F5C0631946ED
:1011E0004FF000021F4B41E902231C4B03F5C5637E
:1011F0003822002118460DF0B0FA184B03F5C663EB
:1012000019464FF00002164B41E90223134B03F538
:10121000C66319464FF00002124BC1E900230F4B81
:1012200003F5CC633822002118460DF096FA0B4BDB
:1012300003F5CC6319464FF000020B4BC1E90023C4
:10124000064B03F5CE6319464FF00002074B41E908
:101250000223024B03F5CE63194609E04003002444
:10126000000008C0000008400000F03F00004940B6
:101270004FF000024D4BC1E900234D4B03F5D36302
:101280003822002118460DF068FA494B03F5D46363
:1012900019464FF00002474B41E90223444B03F546
:1012A000D46319464FF00002434BC1E90023404B81
:1012B00003F5DA633822002118460DF04EFA3C4B54
:1012C00003F5DA6319464FF000023A4BC1E90023F7
:1012D000374B03F5DC6319464FF00002364B41E90A
:1012E0000223334B03F5E1633822002118460DF049
:1012F00034FA2F4B03F5E26319464FF000022D4BF1
:1013000041E902232A4B03F5E26319464FF000023C
:10131000294BC1E90023264B03F5E863382200215D
:1013200018460DF01AFA224B03F5E86319464FF000
:1013300000021E4BC1E900231D4B03F5EA63194669
:101340004FF000021D4B41E90223194B03F5EA63FC
:1013500019464FF00002154BC1E90023144B03F569
:10136000F6633822002118460DF0F7F9104B03F50B
:10137000F86319464FF000020C4B41E902230C4B75
:1013800003F5FD633822002118460DF0E6F9084BFD
:1013900003F5FE6319464FF00002044BC1E9002338
:1013A00000BF07F61807BD4680BD00BF0000F03F34
:1013B00040030024000008C000000840000049402D
:1013C00080B5B8B000AF786039600023C7F8DC3072
:1013D0000023C7F8D8300023C7F8D43000233B736C
:1013E0007868FEF7DDFF0346C7F8D430D7F8D4306D
:1013F0007A6813443B221A700023C7F8DC302FE0D0
:10140000D7F8DC307A6813441B783B2B12D107F1F4
:101410007002D7F8D830134400221A700023C7F89E
:10142000D83007F10C0207F170031146184600F09E
:1014300029F810E0D7F8DC307A681344197807F1FE
:101440007002D7F8D83013440A461A70D7F8D8304B
:101450000133C7F8D830D7F8DC300133C7F8DC30B7
:10146000D7F8DC20D7F8D4309A42C9DD07F10C0355
:10147000194638680DF02BFA00231846E037BD46B0
:1014800080BD000090B5DBB000AF07F5B473A3F5E5
:10149000B273186007F5B473A3F5B4731960002331
:1014A000C7F864310023C7F860310023C7F8E4307F
:1014B00007F1E8036022002118460DF04EF90023E1
:1014C000C7F8803007F184036022002118460DF030
:1014D00044F907F5B473A3F5A67300221A60043328
:1014E0006022002118460DF038F907F5B473A3F512
:1014F000B273186800F0B6FA07F5B473A3F5B273C7
:101500001868FEF74DFF0346C7F8503114E0D7F8CE
:10151000603107F5B472A2F5B272126813441978FB
:1015200007F1E402D7F8603113440A461A70D7F87D
:1015300060310133C7F86031D7F86021D7F85031F6
:101540009A420ADAD7F8603107F5B472A2F5B2729E
:10155000126813441B78202BD9D107F1E402D7F885
:101560006031134400221A70D7F860310133C7F894
:10157000603119E0D7F8603107F5B472A2F5B272A4
:1015800012681344197807F18002D7F864311344C4
:101590000A461A70D7F860310133C7F86031D7F8BE
:1015A00064310133C7F86431D7F86021D7F850317E
:1015B0009A420ADAD7F8603107F5B472A2F5B2722E
:1015C000126813441B78202BD4D107F18002D7F87E
:1015D0006431134400221A704FF0FF33C7F85C31B6
:1015E0000023C7F8583107F5B473A3F5AA73AA4AC4
:1015F00092E8030083E8030007F5B473A3F5AE7126
:1016000007F5B473A3F5AA720B4692E8030083E8CA
:10161000030054E0D7F85C310133C7F85C31002394
:10162000C7F8583118E007F1E402D7F85C311344E9
:10163000197807F5B473A3F5A672D7F85831134497
:101640000A461A70D7F858310133C7F85831D7F81D
:101650005C310133C7F85C3107F1E402D7F85C3143
:1016600013441B783A2B07D007F1E402D7F85C311A
:1016700013441B78002BD6D107F5B473A3F5A672DB
:10168000D7F85831134400221A7007F5B473A3F544
:10169000AE7107F5B473A3F5AA720B4692E8030086
:1016A00083E8030007F5B473A3F5AA7007F11C03E0
:1016B00007F5B472A2F5AA7206CAFEF7F1FF07F1A8
:1016C000E402D7F85C3113441B78002BA2D1D7F881
:1016D0005C31B3F1FF3F9DD097F880303F2B40F055
:1016E000E98007F5B473A3F5AA735B686B491846E4
:1016F000FEF7F6FD0346002B0DD107F5B473A3F5F5
:10170000AA731B6893ED007B07F11C03B0EE470B37
:10171000184600F0C5FA07F5B473A3F5AA735B6821
:101720005F491846FEF7DCFD0346002B0DD107F597
:10173000B473A3F5AA731B6893ED047B07F11C0334
:10174000B0EE470B184600F0ABFA07F5B473A3F5FB
:10175000AA735B6853491846FEF7C2FD0346002B87
:1017600010D107F5B473A3F5AA731B681B6807EEC5
:10177000903AB8EEE77B07F11C03B0EE470B184632
:1017800000F08EFA07F5B473A3F5AA735B684649B7
:101790001846FEF7A5FD0346002B5ED107F5B4738E
:1017A000A3F5AA731B68C7F84831D7F84831DB683E
:1017B000002B5CD0D7F848311B69002B57D0002391
:1017C000C7F854310023C7F854313EE0D7F8483108
:1017D0005B680133002B03F00103B8BF5B42D7F80D
:1017E000482102339B0013445A68D7F85431DB0078
:1017F000134493ED007B07F11C03B0EE470B184632
:1018000000F04EFA07F11C0207F5B473A3F5B473A8
:10181000114618680CF0C4FF07F5B473A3F5B47350
:101820001868FEF7BDFD03461A4607F5B473A3F525
:10183000B4731B6813441D491A460B461B8813805A
:10184000D7F854310133C7F85431D7F848311B6801
:10185000D7F854219A42B9DB09E007F11C0207F5D9
:10186000B473A3F5B473114618680CF099FF07F52B
:10187000B473A3F5B4731868FEF792FD03461A46D5
:1018800007F5B473A3F5B4731B68134408491A46EB
:101890000B461B881380D7E0B408010864080108D0
:1018A000FC0701089808010888080108AC0801082D
:1018B000B008010807F5B473A3F5AA735B6865491E
:1018C0001846FEF70DFD0346002B0DD107F5B47346
:1018D000A3F5AA731C6807F18003184600F02AF9E3
:1018E000B0EE407B84ED007B07F5B473A3F5AA73DB
:1018F0005B6859491846FEF7F3FC0346002B10D1EC
:1019000007F5B473A3F5AA731C6807F180031846A2
:1019100000F010F9B0EE407BB0EE470B2046FFF729
:1019200053F907F5B473A3F5AA735B684B491846DE
:10193000FEF7D6FC0346002B10D107F180031846B2
:1019400000F0F8F8B0EE407B07F5B473A3F5AA7386
:101950001B68FDEEC77B17EE902A1A6007F5B4737B
:10196000A3F5AA735B683E491846FEF7B9FC034627
:10197000002B69D107F5B473A3F5AE731B68203350
:10198000C7F84C3107F18003184600F0D3F8B0EEE9
:10199000407BB5EEC07BF1EE10FA30DD07F5B47395
:1019A000A3F5AA731B6801221A60D7F84C311B6893
:1019B000002B03D1D7F84C310A221A60D7F84C31EA
:1019C0001B68082118460CF0B3F803461A46D7F8EE
:1019D0004C31DA60D7F84C311B68082118460CF0FE
:1019E000A7F803461A46D7F84C311A61D7F84C319C
:1019F00000229A60D7F84C3100225A6024E007F5A3
:101A0000B473A3F5AA731B6800221A60D7F84C318F
:101A1000DB68002B05D0D7F84C31DB6818460CF09A
:101A2000ABF8D7F84C311B69002B05D0D7F84C31F7
:101A30001B6918460CF0A0F8D7F84C310022DA6088
:101A4000D7F84C3100221A610023184607F5B67703
:101A5000BD4690BD64080108FC070108980801080C
:101A60007C08010880B586B000AF786000237B61F8
:101A700000233B610023FB600023BB607868FEF716
:101A80008FFC03467B617B69642B05DD64237B61EE
:101A900002E03B6901333B613B697A6813441B7880
:101AA000202B38D13A697B699A42F2DB33E03B69FB
:101AB0007A6813441B78202B05D03B697A6813445D
:101AC0001B780A2B17D1BB68002B10D10123BB60F8
:101AD0003B697A681A44FB6879680B4412781A707B
:101AE000FB680133FB603B6901333B6113E03B69F9
:101AF00001333B610FE00023BB603B697A681A4405
:101B0000FB6879680B4412781A70FB680133FB603C
:101B10003B6901333B613A697B699A42C7DBFB68E9
:101B20007A68134400221A70002318461837BD46FD
:101B300080BD000080B48DB000AF78604FF000022F
:101B40004FF00003C7E90A234FF000024FF00003F3
:101B5000C7E908230123FB610023BB6100237B61EC
:101B60004FF000024D4BC7E9022302E0BB6901338D
:101B7000BB61BB697A6813441B78202BF6D0BB6924
:101B80007A6813441B78092BF0D0BB697A68134438
:101B90001B782D2B06D14FF0FF33FB61BB6901335E
:101BA000BB6156E0BB697A6813441B782B2B50D17C
:101BB000BB690133BB614CE0BB697A6813441B7895
:101BC0002E2B05D101237B61BB690133BB6140E052
:101BD000BB697A6813441B782F2B40D9BB697A689C
:101BE00013441B78392B3AD87B69002B13D197ED1E
:101BF0000A7BB2EE046B27EE066BBB697A6813446E
:101C00001B78303B07EE903AB8EEE77B36EE077B69
:101C100087ED0A7B1AE0BB697A6813441B78303B76
:101C200007EE903AB8EEE75B97ED026B85EE067B28
:101C300097ED086B36EE077B87ED087B97ED027B0F
:101C4000B2EE046B27EE067B87ED027BBB690133A6
:101C5000BB61BB697A6813441B78002BACD197ED4C
:101C60000A6B97ED087B36EE077B87ED0A7BFB69F5
:101C700007EE903AB8EEE77B97ED0A6B26EE077B0E
:101C800087ED0A7BD7E90A2343EC172BB0EE470B0D
:101C90003437BD465DF8047B704700BF0000244028
:101CA00080B58CB000AFF86087ED000B0023FB62BD
:101CB00000233B6297ED007BB5EE407BF1EE10FA1E
:101CC00007D1FB6880491A460B461B881380002306
:101CD000EAE097ED007BB5EEC07BF1EE10FA0DD592
:101CE000FB6AFA6813442D221A70FB6A0133FB6207
:101CF00097ED007BB1EE477B87ED007B6CA3D3E9CA
:101D00000023C7E9062307E097ED066BB2EE045BFC
:101D100086EE057B87ED067B97ED067B9FED666B78
:101D2000B4EEC67BF1EE10FA08DD97ED066B97ED89
:101D3000007BB4EEC76BF1EE10FAE5DC97ED060B15
:101D40000EF02AFBB0EE407BFDEEC77B17EE903A1B
:101D50007B617B69002B24DA7B695B427B61FB6AD8
:101D6000FA68134430221A70FB6A0133FB62FB6A83
:101D7000FA6813442E221A70FB6A0133FB620123B6
:101D8000BB620AE0FB6AFA68134430221A70FB6AED
:101D90000133FB62BB6A0133BB62BA6A7B699A4258
:101DA000F0DB00237B6276E00923BB6220E0BB6AA4
:101DB00007EE903AB8EEE76B97ED067B26EE077BD1
:101DC00097ED006B36EE477BB5EEC07BF1EE10FA77
:101DD0000BDBBB6ADAB2FB6AF9680B443032D2B271
:101DE0001A70FB6A0133FB6205E0BB6A013BBB6210
:101DF000BB6A002BDBDABB6A07EE903AB8EEE76B02
:101E000097ED067B26EE077B97ED006B36EE477B62
:101E100087ED007B97ED066BB2EE045B86EE057BEB
:101E200087ED067B97ED067BB6EE006BB4EEC67BC6
:101E3000F1EE10FA12D597ED067B9FED216BB4EE13
:101E4000C67BF1EE10FA09DDFB6AFA6813442E2214
:101E50001A70FB6A0133FB6201233B6297ED007B42
:101E6000B5EE407BF1EE10FA12D13B6A002B0FD099
:101E7000FB6A013BFA6813441B782E2B02D1FB6AE4
:101E8000013BFB62FB6AFA68134400221A7005E00A
:101E90007B6A01337B627B6A0E2B85DDFB6AFA6805
:101EA000134400221A70002318463037BD4680BD07
:101EB0000080E03779C3414311EA2D819997713D44
:101EC0009A9999999999A93FBC08010880B592B04F
:101ED00000AF7860396003F0B7F80023FB6202239B
:101EE0003B6307237B630123BB632023FB6307F171
:101EF000280207F12C031146184603F0A5F9034602
:101F0000002B02D003F0DAF867E03B683B64002363
:101F10007B645CE07B6CB3F5827F06D27B6CDB007C
:101F20003A6C1344D3E9002303E04FF0FF324FF043
:101F3000FF33C7E902237B6C0133B3F5827F07D2FD
:101F40007B6C0133DB003A6C1344D3E9002303E0DC
:101F50004FF0FF324FF0FF33C7E904237B6C0233AD
:101F6000B3F5827F07D27B6C0233DB003A6C1344FB
:101F7000D3E9002303E04FF0FF324FF0FF33C7E90E
:101F800006237B6C0333B3F5827F07D27B6C03336C
:101F9000DB003A6C1344D3E9002303E04FF0FF3237
:101FA0004FF0FF33C7E908237B6CDA007B681344EA
:101FB00007F108021946012002F0B4FF0346002B86
:101FC00002D003F07BF808E07B6C04337B647B6C0D
:101FD000B3F5827F9ED303F071F84837BD4680BDCC
:101FE00080B582B000AF786039607B684FF40262E0
:101FF000194638680CF073FC00BF0837BD4680BD39
:1020000080B483B000AF78607B6893ED007BFCEE1A
:10201000C77B17EE903A18460C37BD465DF8047B37
:102020007047000080B52DED028B00AF01F032FD4E
:1020300000F088F800F002F900F0FEFB00F064FB0D
:1020400000F02CF900F020FA00F0C6FA00F0AAF92E
:1020500000F072FA00F00CFB00F0A2FBFEF716FE97
:102060002D4B93ED008B2D48FFF7CAFF07EE900A2A
:10207000B8EE677BB4EE478BF1EE10FA04D0264938
:102080002648FFF723FF03E023492448FFF7A8FF72
:1020900000224FF40041224803F010FC01224FF4CB
:1020A0008061204803F00AFC0021002000F004FFBA
:1020B0000021012000F000FF0021022000F0FCFEC2
:1020C0000021032000F0F8FE01224FF400511448D3
:1020D00003F0F4FB01224FF48041114803F0EEFBC2
:1020E00001220821104803F0E9FB08F09BFF0F4A8A
:1020F00000210F4808F0E0FF03460E4A13600E4A25
:1021000000210E4808F0D8FF03460D4A136008F07E
:10211000ADFF00BFFDE700BF4003002400001E0824
:102120000010025800040258000802582C09010847
:102130000D2F0008880F0024500901081D2F0008EA
:102140008C0F002480B59CB000AF07F124034C2213
:10215000002118460CF001FB3B1D202200211846EF
:102160000CF0FBFA022003F0DDFB00233B60314B57
:10217000DB6A304A23F00103D3622E4BDB6A03F0A3
:1021800001033B602C4B9B6923F440432A4A43F4F0
:1021900000439361284B9B6903F440433B603B68D9
:1021A00000BF254B9B6903F40053B3F5005FF8D1E2
:1021B00001237B624FF48033BB620223BB640223A2
:1021C000FB6401233B6512237B650223BB6503236C
:1021D000FB6502233B660C237B660223BB664FF440
:1021E000C053FB6607F12403184603F0D5FB0346F2
:1021F000002B01D000F04EFF3F237B600323BB6028
:102200000023FB6000233B6100237B610023BB6153
:102210000023FB6100233B623B1D0121184604F0B3
:1022200015F80346002B01D000F034FF00BF7037D3
:10223000BD4680BD000400580048025880B5B0B0CB
:1022400000AF3B46C022002118460CF086FA4FF43E
:1022500000224FF00003C7E900230123BB601223D3
:10226000FB6002233B6102237B610223BB61C0232D
:10227000FB6120233B624FF4C0537B620023C7F80D
:10228000A4303B46184604F06DFB0346002B01D0FA
:1022900000F000FF00BFC037BD4680BD80B58AB0EA
:1022A00000AF07F11C0300221A605A609A603B4697
:1022B00000221A605A609A60DA601A615A619A6163
:1022C000354B364A1A60344B0022DA60324B042216
:1022D0001A61314B00221A752F4B00225A752E4B72
:1022E00001229A612C4B00221A772B4B00225A6252
:1022F000294B00229A62284B0022DA62264B0022E8
:102300001A63254B00225A63234B002283F838209E
:10231000214B0122DA63204801F0E6FD0346002B41
:1023200001D000F0B7FE1C4B4FF480225A601A4BCC
:1023300000229A60184801F0D7FD0346002B01D017
:1023400000F0A8FE0023FB6107F11C0319461248A8
:1023500002F0FAFB0346002B01D000F09BFE104B6D
:102360003B6006237B600023BB6040F2FF73FB6091
:1023700004233B6100237B6100237B763B461946A7
:10238000054801F053FF0346002B01D000F082FE08
:1023900000BF2837BD4680BD600B002400200240EE
:1023A0002000F01480B588B000AF3B1D00221A60F9
:1023B0005A609A60DA601A615A619A612F4B304A0A
:1023C0001A602E4B0022DA602C4B04221A612B4B30
:1023D00000221A75294B00225A75284B01229A6156
:1023E000264B00221A77254B00225A62234B0022EB
:1023F0009A62224B0022DA62204B00221A631F4BA2
:1024000000225A631D4B002283F838201B4B012207
:10241000DA631A4801F068FD0346002B01D000F092
:1024200039FE164B4FF480225A60144B00229A60FA
:10243000124801F059FD0346002B01D000F02AFE9E
:10244000104B7B600623BB600023FB6040F2FF73F0
:102450003B6104237B610023BB6100237B773B1D31
:102460001946064801F0E2FE0346002B01D000F0B9
:1024700011FE00BF2037BD4680BD00BFC40B002445
:10248000002102400800900C80B500AF284B294A7B
:102490001A60274B4FF480025A60254B4FF40032EC
:1024A0009A60234B1722DA60214B00221A61204BDD
:1024B0004FF080725A611E4B4FF000529A611C4BD4
:1024C0004FF0E042DA611A4B00221A62184B0022E8
:1024D0005A62174B00229A62154B0022DA62144BA3
:1024E0004FF080425A63124B00229A63104B002235
:1024F000DA630F4B00221A640D4B00225A640C4B16
:1025000000229A640A4B0022DA64094B00221A6501
:10251000074B00225A65064B00229A65044806F0D4
:102520001FFF0346002B01D000F0B4FD00BF80BDAB
:10253000280C00240038004080B500AF244B254A09
:102540001A60234B00225A60214B00229A60204BD4
:102550000322DA601E4B00221A611D4B00225A61D1
:102560001B4B00229A611A4B00221A62184B002260
:102570005A62174B00229A62154B0022DA62144B02
:1025800000225A63124B00229A63114B0022DA6335
:102590000F4B00221A640E4B00225A640C4B00228F
:1025A0009A640B4B0022DA64094B00221A65084B2F
:1025B00000225A65064B00229A65054806F0D0FEB7
:1025C0000346002B01D000F065FD00BF80BD00BFB9
:1025D000B00C00240034014080B500AF224B234AE8
:1025E0001A60214B4FF4E1325A601F4B00229A606F
:1025F0001D4B0022DA601C4B00221A611A4B0C2280
:102600005A61194B00229A61174B0022DA61164B6E
:1026100000221A62144B00225A62134B00229A6263
:10262000114807F098FA0346002B01D000F032FD64
:1026300000210D4808F0F7FB0346002B01D000F005
:1026400029FD0021084808F02CFC0346002B01D08E
:1026500000F020FD044808F0ADFB0346002B01D03C
:1026600000F018FD00BF80BD380D0024004C004074
:1026700080B500AF224B234A1A60214B4FF4E13260
:102680005A601F4B00229A601D4B0022DA601C4BDF
:1026900000221A611A4B0C225A61194B00229A61CE
:1026A000174B0022DA61164B00221A62144B0022EB
:1026B0005A62134B00229A62114807F04CFA034603
:1026C000002B01D000F0E6FC00210D4808F0ABFB28
:1026D0000346002B01D000F0DDFC0021084808F083
:1026E000E0FB0346002B01D000F0D4FC044808F0C6
:1026F00061FB0346002B01D000F0CCFC00BF80BD85
:10270000CC0D00240010014080B500AF224B234ABD
:102710001A60214B4FF4E1325A601F4B00229A603D
:102720001D4B0022DA601C4B00221A611A4B0C224E
:102730005A61194B00229A61174B0022DA61164B3D
:1027400000221A62144B00225A62134B00229A6232
:10275000114807F000FA0346002B01D000F09AFC64
:1027600000210D4808F05FFB0346002B01D000F06C
:1027700091FC0021084808F094FB0346002B01D08F
:1027800000F088FC044808F015FB0346002B01D03C
:1027900000F080FC00BF80BD600E002400480040B7
:1027A00080B500AF224B234A1A60214B4FF4E1322F
:1027B0005A601F4B00229A601D4B0022DA601C4BAE
:1027C00000221A611A4B0C225A61194B00229A619D
:1027D000174B0022DA61164B00221A62144B0022BA
:1027E0005A62134B00229A62114807F0B4F903466B
:1027F000002B01D000F04EFC00210D4808F013FB27
:102800000346002B01D000F045FC0021084808F0E9
:1028100048FB0346002B01D000F03CFC044808F0C4
:10282000C9FA0346002B01D000F034FC00BF80BD84
:10283000F40E00240014014080B58CB000AF07F105
:102840001C0300221A605A609A60DA601A61794BA0
:10285000D3F8E030774A43F01003C2F8E030754B0C
:10286000D3F8E03003F01003BB61BB69714BD3F8C0
:10287000E030704A43F08003C2F8E0306D4BD3F88B
:10288000E03003F080037B617B696A4BD3F8E03072
:10289000684A43F00403C2F8E030664BD3F8E030F6
:1028A00003F004033B613B69624BD3F8E030614ABB
:1028B00043F00103C2F8E0305E4BD3F8E03003F0A0
:1028C0000103FB60FB685B4BD3F8E030594A43F0EF
:1028D0000203C2F8E030574BD3F8E03003F00203B4
:1028E000BB60BB68534BD3F8E030524A43F0080357
:1028F000C2F8E0304F4BD3F8E03003F008037B60C0
:102900007B6800220C214C4802F0D8FF00224FF4D3
:1029100060414A4802F0D2FF002244F67041484824
:1029200002F0CCFF0C23FB6101233B6200237B629E
:102930000023BB6207F11C0319463F4802F0F6FD75
:1029400040F20F13FB614FF488133B6200237B625C
:1029500007F11C0319463B4802F0E8FD4FF42073D1
:10296000FB614FF488133B6200237B6207F11C0379
:102970001946324802F0DAFD4FF46043FB6101234F
:102980003B6200237B620023BB6207F11C031946F4
:102990002A4802F0CBFD44F67043FB6101233B6201
:1029A00000237B620023BB6207F11C031946244805
:1029B00002F0BCFD4FF64043FB614FF488133B62CD
:1029C00002237B6207F11C0319461F4802F0AEFD8B
:1029D0004FF44073FB6102233B6200237B620323BD
:1029E000BB620C23FB6207F11C031946124802F07C
:1029F0009DFD1023FB614FF488133B6200237B6233
:102A000007F11C031946104802F090FD0022052131
:102A1000172002F052FA172002F069FA002205216D
:102A2000282002F04AFA282002F061FA00BF30376D
:102A3000BD4680BD004402580008025800100258EC
:102A40000004025800000258000C025880B582B001
:102A500000AF78600B467B807B881946786802F06F
:102A600015FF0346012B01D1012300E00023184686
:102A70000837BD4680BD000090B585B000AF034665
:102A8000FB80FB88B3F5806F46D1254B03F5F263DD
:102A900019464FF00002234B41E902234FF4005145
:102AA0002148FFF7D3FF03469B005CB24FF48051EF
:102AB0001D48FFF7CBFF03465B005BB223435CB2CC
:102AC0004FF400611848FFF7C1FF03465BB2234390
:102AD0005BB2FB73FA7B154B1B689A4203D1144B14
:102AE0001B68002B0ED0FA7B104B1B689A4209D052
:102AF000FB7B184600F01EF8FB7B0C4A13600C4B66
:102B000000221A60FB7B07EE903AB8EE677B044B1D
:102B100003F5F26303ED027B00BF1437BD4690BDA1
:102B20004003002400002040000C02583C01002417
:102B30000000002480B58EB000AF78608F4A7B68BB
:102B40005B011344183393ED007BB7EE006BB4EEDA
:102B5000C67BF1EE10FA0AD5884A7B685B01134404
:102B600003F118014FF00002854BC1E90023834AAD
:102B70007B685B011344183393ED007B37EE077BD2
:102B8000B0EE470B0DF044FCB0EE407BFDEEC77B92
:102B900017EE903A7B6200237B6337E077497B68CE
:102BA0009A007B6B1344DB000B4493ED006B754B79
:102BB0001B6872499A007B6B1344DB000B4493ED56
:102BC000007B36EE477BB0EEC75B7B6A07EE903A40
:102BD000B8EEE76B85EE067B7B6BDB0038333B445E
:102BE000303B83ED007B674B1B6864499A007B6B2D
:102BF0001344DB000B44D3E900236348796BC9001D
:102C00000144C1E900237B6B01337B637B6B022BA7
:102C1000C4DD01233B63A5E00023FB6239E05A4A8F
:102C2000FB6ADB00134493ED006B54497B689A0008
:102C3000FB6A1344DB000B4493ED005B514B1B68B4
:102C40004E499A00FB6A1344DB000B4493ED007B72
:102C5000B4EEC75BF1EE10FA07DDFB6ADB00383338
:102C60003B44303B93ED007B08E0FB6ADB003833EC
:102C70003B44303B93ED007BB1EE477B37EE067B68
:102C8000414AFB6ADB00134483ED007BFB6A01339E
:102C9000FB62FB6A022BC2DD0023BB625CE03B4BA4
:102CA00001221A603A4ABB6A52F82300394ABB6AC9
:102CB00032F81310344ABB6ADB00134493ED007BF7
:102CC000B5EEC07BF1EE10FAACBF01230023DBB2FE
:102CD00083F00103DBB2DBB21A4602F0EFFD2A4AB1
:102CE000BB6ADB00134493ED007BB0EEC77BB0EE14
:102CF000086BB4EEC67BF1EE10FA04DD264B4FF6FE
:102D0000FF721A801DE0204ABB6ADB00134493ED7A
:102D1000007BB0EE085B87EE056BDFED207AB8EE46
:102D2000E77B26EE077BB0EE470B0DF071FBB0EEB4
:102D3000407BB0EE470B0AF0F7FE03469AB2164B03
:102D40001A80BB6ADBB2144A12881146184600F09A
:102D5000B3F8BB6A0133BB62BB6A022B9FDD3B6BDE
:102D600001333B633A6B7B6A9A427FF755AF054A62
:102D70007B68136000BF3837BD4680BD0800002463
:102D80000000F03F3C01002408010024900F0024C3
:102D90002801002434010024940F002400000100C5
:102DA000B0B48BB000AF294B3C1D1D460FCD0FC4F6
:102DB00095E80F0084E80F0000237B623DE07B6A0A
:102DC0009B0028333B4453F8243CD3E90423204898
:102DD000796A49010144C1E900237B6A9B002833D9
:102DE0003B4453F8243CD3E912231948796A49013A
:102DF00001440831C1E900237B6A9B0028333B442E
:102E000053F8243CD3E920231148796A490101444D
:102E10001031C1E900237B6A9B0028333B4453F8FF
:102E2000243CD3E92E230A48796A49010144183128
:102E3000C1E900237B6A01337B627B6A072BBEDD1D
:102E400000BF00BF2C37BD46B0BC7047F408010876
:102E50000800002480B582B000AF7860396039681E
:102E60007868FEF7ADFA3B68633300221A70FFF70B
:102E700097FF00BF0837BD4680BD000080B584B015
:102E800000AF78607B68DBB23B737B681B0ADBB208
:102E90007B737B681B0CDBB2BB7307F10C016423F3
:102EA0000122044806F080FB0346FB7300BF103785
:102EB000BD4680BD280C002480B584B000AF034619
:102EC0000A46FB711346BB800023FB60BB88FA688F
:102ED0001343FB60FB795B0403F4C023FA681343DC
:102EE000FB60F868FFF7CAFF01224FF480410648F3
:102EF00002F0E4FC00224FF48041034802F0DEFCC3
:102F000000BF1037BD4680BD0004025880B582B0B6
:102F100000AF7860012008F061F9FBE780B5B6B03A
:102F200000AF78600023A7F8D6300A233B8107F171
:102F300008031846FDF734FA03469AB207F1080170
:102F40004FF0FF33504806F056FE07F1D4014FF022
:102F5000FF3301224C4806F0DCFE034687F8D530EB
:102F600097F8D530002B59D197F8D4300D2B03D0DA
:102F700097F8D4300A2B3FD1B7F8D630002B3BD08E
:102F8000B7F8D6305A1CA7F8D620D8333B440A22CB
:102F900003F8682CB7F8D6305A1CA7F8D620D833D7
:102FA0003B44002203F8682C07F10C0207F1700380
:102FB00011461846FFF74EFF07F10C031846FDF7C0
:102FC000EFF903469AB207F10C014FF0FF332E4898
:102FD00006F011FE07F108031846FDF7E1F9034674
:102FE0009AB207F108014FF0FF33274806F003FEBD
:102FF0000023A7F8D63011E0B7F8D6305A1CA7F84E
:10300000D62097F8D420D8333B4403F8682CB7F87F
:10301000D630632B02D90023A7F8D6301B4B03F51B
:10302000F86393ED007BB7EE006BB4EE467BF1EEF8
:1030300010FA0DD1154B03F5F86319464FF0000255
:103040004FF00003C1E9002310491148FEF73EFF8D
:103050000E4B03F5006313ED027BB7EE006BB4EE8D
:10306000467BF1EE10FA7FF470AF084B03F5006376
:1030700019464FF000024FF0000341E902230349D3
:103080000348FEF7ADFF60E7380D0024400300243D
:1030900000001E0880B400AF72B600BF00BFFDE79D
:1030A00080B582B000AF0C4BD3F8F4300A4A43F03D
:1030B0000203C2F8F430084BD3F8F43003F00203F3
:1030C0007B607B6800220F216FF0010001F0F5FEAC
:1030D00000BF0837BD4680BD0044025880B590B09F
:1030E00000AF786007F12C0300221A605A609A60E2
:1030F000DA601A617B681B686F4A934269D16F4B33
:103100001B6801336D4A13606C4B1B68012B0ED199
:103110006B4BD3F8D8306A4A43F02003C2F8D8305A
:10312000674BD3F8D83003F02003BB62BB6A644B13
:10313000D3F8E030624A43F00403C2F8E030604B59
:10314000D3F8E03003F004037B627B6A5C4BD3F876
:10315000E0305B4A43F00103C2F8E030584BD3F84B
:10316000E03003F001033B623B6A554BD3F8E0309B
:10317000534A43F00203C2F8E030514BD3F8E03039
:1031800003F00203FB61FB693323FB6203233B6310
:1031900000237B6307F12C0319464A4802F0C6F965
:1031A000C023FB6203233B6300237B6307F12C03F3
:1031B0001946454802F0BAF90323FB6203233B6337
:1031C00000237B6307F12C031946404802F0AEF957
:1031D0006DE07B681B683E4A934268D1374B1B68A1
:1031E0000133364A1360354B1B68012B0ED1344B2B
:1031F000D3F8D830324A43F02003C2F8D830304BED
:10320000D3F8D83003F02003BB61BB692C4BD3F853
:10321000E0302B4A43F00403C2F8E030284BD3F8E7
:10322000E03003F004037B617B69254BD3F8E03089
:10323000234A43F00103C2F8E030214BD3F8E030D9
:1032400003F001033B613B691D4BD3F8E0301C4A9E
:1032500043F00203C2F8E030194BD3F8E03003F03A
:103260000203FB60FB683323FB6203233B63002301
:103270007B6307F12C031946124802F057F9C0236B
:10328000FB6203233B6300237B6307F12C03194696
:103290000D4802F04BF90323FB6203233B63002339
:1032A0007B6307F12C031946084802F03FF900BF81
:1032B0004037BD4680BD00BF00200240980F00246B
:1032C0000044025800080258000002580004025846
:1032D0000021024080B5BCB000AF786007F1DC038C
:1032E00000221A605A609A60DA601A6107F11803C6
:1032F000C022002118460BF030FA7B681B684C4A4C
:10330000934246D14FF480524FF00003C7E90623A1
:103310000023BB6707F11803184603F023FB03469D
:10332000002B01D0FFF7B6FE424BD3F8E830414AFC
:1033300043F48043C2F8E8303E4BD3F8E83003F45E
:1033400080437B617B693B4BD3F8E030394A43F0E3
:103350000203C2F8E030374BD3F8E03003F0020349
:103360003B613B694FF43043C7F8DC300223C7F8B8
:10337000E0300023C7F8E4300023C7F8E830052325
:10338000C7F8EC3007F1DC0319462B4802F0CEF801
:1033900049E07B681B68294A934244D14FF40052AC
:1033A0004FF00003C7E906230023FB6707F118036A
:1033B000184603F0D7FA0346002B01D0FFF76AFE48
:1033C0001C4BD3F8F0301B4A43F40053C2F8F030E2
:1033D000184BD3F8F03003F40053FB60FB68154B37
:1033E000D3F8E030134A43F01003C2F8E030114B39
:1033F000D3F8E03003F01003BB60BB687423C7F858
:10340000DC300223C7F8E0300023C7F8E4300023A3
:10341000C7F8E8300523C7F8EC3007F1DC0319469C
:10342000074802F083F800BFF037BD4680BD00BFFB
:1034300000380040004402580004025800340140A3
:103440000010025880B5C0B000AF786007F1EC03FF
:1034500000221A605A609A60DA601A6107F1280344
:10346000C022002118460BF078F97B681B689A4A45
:10347000934247D14FF002024FF00003C7E90A23FD
:103480000023C7F8A03007F12803184603F06AFAB2
:103490000346002B01D0FFF7FDFD904BD3F8E83039
:1034A0008E4A43F40023C2F8E8308C4BD3F8E8305E
:1034B00003F400237B627B6A884BD3F8E030874AB1
:1034C00043F00103C2F8E030844BD3F8E03003F05E
:1034D00001033B623B6A4FF4C053C7F8EC30022350
:1034E000C7F8F0300023C7F8F4300023C7F8F830ED
:1034F0000623C7F8FC3007F1EC031946784802F0C0
:1035000015F8E4E07B681B68764A934247D14FF098
:1035100001024FF00003C7E90A230023C7F8A430D3
:1035200007F12803184603F01DFA0346002B01D0CB
:10353000FFF7B0FD694BD3F8F030684A43F0100351
:10354000C2F8F030654BD3F8F03003F01003FB61A4
:10355000FB69624BD3F8E030604A43F00103C2F8E4
:10356000E0305E4BD3F8E03003F00103BB61BB6990
:103570004FF4C063C7F8EC300223C7F8F0300023E3
:10358000C7F8F4300023C7F8F8300723C7F8FC3039
:1035900007F1EC031946524801F0C8FF97E07B6839
:1035A0001B68514A934247D14FF002024FF000038B
:1035B000C7E90A230023C7F8A03007F128031846FB
:1035C00003F0D0F90346002B01D0FFF763FD434B16
:1035D000D3F8E830414A43F48023C2F8E8303F4B47
:1035E000D3F8E83003F480237B617B693B4BD3F84D
:1035F000E0303A4A43F00803C2F8E030374BD3F8E2
:10360000E03003F008033B613B694FF44073C7F8B7
:10361000EC300223C7F8F0300023C7F8F430002361
:10362000C7F8F8300723C7F8FC3007F1EC03194658
:103630002E4801F07BFF4AE07B681B682C4A9342CE
:1036400045D14FF001024FF00003C7E90A230023E0
:10365000C7F8A43007F12803184603F083F903469E
:10366000002B01D0FFF716FD1C4BD3F8F0301B4A9E
:1036700043F02003C2F8F030184BD3F8F03003F0D9
:103680002003FB60FB68154BD3F8E030134A43F08E
:103690000403C2F8E030114BD3F8E03003F0040328
:1036A000BB60BB68C023C7F8EC300223C7F8F0301A
:1036B0000023C7F8F4300023C7F8F8300723C7F811
:1036C000FC3007F1EC0319460A4801F02FFF00BF58
:1036D00007F58077BD4680BD004C0040004402588D
:1036E000000002580010014000480040000C025841
:1036F000001401400008025880B400AF00BFFDE78D
:1037000080B400AF00BFFDE780B400AF00BFFDE7AD
:1037100080B400AF00BFFDE780B400AF00BFFDE79D
:1037200080B400AF00BFBD465DF8047B704780B534
:1037300000AF00F021FA09F079F90346012B01D01E
:1037400009F072FF00BF80BD80B500AF402002F0DD
:10375000CEF8802002F0CBF84FF4807002F0C7F86A
:103760004FF4007002F0C3F800BF80BD80B500AF19
:103770004FF4806002F0BBF84FF4006002F0B7F83D
:103780004FF4805002F0B3F84FF4005002F0AFF85D
:103790004FF4804002F0ABF84FF4004002F0A7F87D
:1037A00000BF80BD80B400AF01231846BD465DF860
:1037B000047B704780B582B000AF786039600BF051
:1037C00059F8034616221A604FF0FF33184608379F
:1037D000BD4680BD80B582B000AF78604FF0FF314C
:1037E0007868FFF7E7FF00BFFDE780B586B000AF60
:1037F000F860B9607A6000237B610AE0AFF3008073
:103800000146BB685A1CBA60CAB21A707B690133A0
:103810007B617A697B689A42F0DB7B6818461837CF
:10382000BD4680BD80B586B000AFF860B9607A60F3
:1038300000237B6109E0BB685A1CBA601B781846FC
:10384000AFF300807B6901337B617A697B689A42C0
:10385000F1DB7B6818461837BD4680BD80B483B065
:1038600000AF78604FF0FF3318460C37BD465DF867
:10387000047B704780B483B000AF786039603B68E8
:103880004FF400525A60002318460C37BD465DF8CD
:10389000047B704780B483B000AF78600123184682
:1038A0000C37BD465DF8047B704780B485B000AF2F
:1038B000F860B9607A60002318461437BD465DF899
:1038C000047B704780B586B000AF7860144A154B12
:1038D000D31A7B617B693B61134B1B68002B02D1C0
:1038E000114B124A1A60104B1A687B6813443A69EC
:1038F0009A4207D20AF0BEFF03460C221A604FF02C
:10390000FF3309E0084B1B68FB60074B1A687B68B4
:103910001344054A1360FB6818461837BD4680BD3E
:1039200000000824000400009C0F0024605A0024BA
:1039300080B400AF374BD3F88830364A43F4700375
:10394000C2F88830344B1B6803F00F03062B07D8EE
:10395000314B1B6823F00F032F4A43F0070313601A
:103960002E4B1B682D4A43F0010313602B4B0022A2
:103970001A612A4B1A682949294B13400B60264BC0
:103980001B6803F00803002B07D0234B1B6823F0B0
:103990000F03214A43F007031360204B00229A6172
:1039A0001E4B0022DA611D4B00221A621B4B1D4A7E
:1039B0009A621A4B1C4ADA62184B1C4A1A63174B5C
:1039C00000225A63154B194A9A63144B0022DA639A
:1039D000124B164A1A64114B00225A640F4B1B6893
:1039E0000E4A23F4802313600C4B00221A66104BFE
:1039F0001A68104B1340B3F1005F02D20E4B012244
:103A00001A600E4B43F2D2021A6000BFBD465DF849
:103A1000047B704700ED00E0002000520044025893
:103A20007FEDF6EA000202020000FF0180020101C0
:103A30000010005C0000FFFF0881005100400052B0
:103A4000DFF834D0FFF774FF0C480D490D4A00230E
:103A500002E0D458C4500433C4188C42F9D30A4A43
:103A60000A4C002301E013600432A242FBD30AF0A7
:103A700007FFFEF7D7FA7047000008240000002473
:103A80001C030024C0150108200300245C5A0024F4
:103A9000FEE7000080B582B000AF032001F002FA1B
:103AA00002F08AFD0246154B9B691B0A03F00F03C7
:103AB0001349CB5C03F01F0322FA03F37B600F4B27
:103AC0009B6903F00F030E4AD35C03F01F037A686F
:103AD00022FA03F30B4A13600B4A7B6813600F2032
:103AE00000F014F80346002B01D0012302E0FFF799
:103AF000D7FA002318460837BD4680BD0044025857
:103B000074090108440100244001002480B582B0FA
:103B100000AF7860154B1B78002B01D1012321E009
:103B2000134B1A68114B1B7819464FF47A73B3FB89
:103B3000F1F3B2FBF3F3184601F0E7F90346002B6B
:103B400001D001230EE07B680F2B0AD80022796890
:103B50004FF0FF3001F0B1F9064A7B681360002393
:103B600000E0012318460837BD4680BD4C01002403
:103B7000400100244801002480B400AF064B1B78AC
:103B80001A46064B1B681344044A136000BFBD4627
:103B90005DF8047B704700BF4C010024A00F002497
:103BA00080B400AF034B1B681846BD465DF8047B2C
:103BB000704700BFA00F002480B400AF034B1B6808
:103BC0001B0C1846BD465DF8047B70470010005C76
:103BD00080B483B000AF786039607B689B6823F461
:103BE0007C123B681A437B689A6000BF0C37BD4665
:103BF0005DF8047B704780B483B000AF78603960B3
:103C00007B689B6823F0E0723B681A437B689A608C
:103C100000BF0C37BD465DF8047B704780B483B0AD
:103C200000AF78607B689B6803F0E07318460C3740
:103C3000BD465DF8047B704780B487B000AFF86084
:103C4000B9607A603B60FB6860331A46BB689B00D2
:103C500013447B617B691B6803F000427B6803F0BF
:103C6000F8413B680B431A437B691A6000BF1C375D
:103C7000BD465DF8047B704780B485B000AFF86046
:103C8000B9607A60FB681B6923F4F042BB6803F0FB
:103C90001F03796801FA03F31A43FB681A6100BF36
:103CA0001437BD465DF8047B704780B487B000AF21
:103CB000F860B9607A60FB6860331A46BB689B00A5
:103CC00013447B617B691B6823F000427B681A43C5
:103CD0007B691A6000BF1C37BD465DF8047B7047E6
:103CE00080B487B000AFF860B9607A60FB683033A9
:103CF0001A46BB681B0A9B0003F00C0313447B614C
:103D00007B691A68BB6803F01F031F2101FA03F3E4
:103D1000DB431A407B689B0E03F01F01BB6803F076
:103D20001F0301FA03F31A437B691A6000BF1C37B3
:103D3000BD465DF8047B704780B487B000AFF86083
:103D4000B9607A60FB6814331A46BB685B0E9B004F
:103D500003F0040313447B617B691A68BB681B0D85
:103D600003F01F03072101FA03F3DB431A40BB688A
:103D70001B0D03F01F03796801FA03F31A437B69F3
:103D80001A6000BF1C37BD465DF8047B7047000019
:103D900080B485B000AFF860B9607A60FB68D3F892
:103DA000C020BB68C3F31303DB431A407B6803F0F6
:103DB00018030849D940BB680B40C3F313031A43E7
:103DC000FB68C3F8C02000BF1437BD465DF8047B14
:103DD000704700BFFFFF0F0080B483B000AF786072
:103DE0007B689A68044B13407A68936000BF0C3775
:103DF000BD465DF8047B7047C0FFFF5F80B483B0B1
:103E000000AF78607B689B6803F00053B3F1005FFC
:103E100001D1012300E0002318460C37BD465DF8B0
:103E2000047B704780B483B000AF78607B689A6889
:103E3000054B134043F080527B689A6000BF0C37FB
:103E4000BD465DF8047B7047C0FFFF6F80B483B050
:103E500000AF78607B689B6803F08053B3F1805FAC
:103E600001D1012300E0002318460C37BD465DF860
:103E7000047B704780B483B000AF78607B689B6838
:103E800003F00103012B01D1012300E000231846B8
:103E90000C37BD465DF8047B704780B483B000AF3B
:103EA00078607B689B6803F00403042B01D1012335
:103EB00000E0002318460C37BD465DF8047B7047D0
:103EC00080B483B000AF78607B689B6803F0080320
:103ED000082B01D1012300E0002318460C37BD4612
:103EE0005DF8047B7047000090B589B000AF786042
:103EF0000023FB770023BB607B68002B01D10123EB
:103F00008FE17B68DB68002B7B685B6D002B09D140
:103F10007868FFF7E3F87B6800229A657B680022E7
:103F200083F850207B681B681846FFF767FF03463D
:103F3000002B04D07B681B681846FFF74DFF7B6899
:103F40001B681846FFF782FF0346002B14D17B68DD
:103F50001B681846FFF766FF874B1B689B09874A5B
:103F6000A2FB03239B090133BB6002E0BB68013B5A
:103F7000BB60BB68002BF9D17B681B681846FFF754
:103F800065FF0346002B0DD17B685B6D43F010028B
:103F90007B685A657B689B6D43F001027B689A657C
:103FA0000123FB777B681B681846FFF776FF786173
:103FB0007B685B6D03F01003002B40F029817B6967
:103FC000002B40F025817B685B6D23F4817343F007
:103FD00002027B685A657B681B681846FFF74AFF38
:103FE0000346002B36D17B681B68654A934204D098
:103FF0007B681B68634A93420ED16148FFF73AFF22
:1040000004466048FFF736FF03462343002B0CBFEE
:1040100001230023DBB208E05B48FFF72BFF0346D8
:10402000002B0CBF01230023DBB2002B12D07B68D6
:104030001B68534A934204D07B681B68514A9342E1
:1040400001D1524A00E0524A7B685B68194610462B
:10405000FFF7BEFDFFF7B0FD034641F203029342B6
:1040600014D97B689B68102B10D17B685B7D5A0349
:104070007B681B6B1A437B689B681A437B681B7FBA
:104080001B04134343F00C03BB610DE07B685B7DB5
:104090005A037B681B6B1A437B689B681A437B68D7
:1040A0001B7F1B041343BB617B681B7F012B06D165
:1040B0007B681B6A013B5B04BA691343BB617B6885
:1040C0005B6A002B09D07B685B6A03F478727B68BB
:1040D0009B6A1343BA691343BB617B681B68DA6848
:1040E0002C4B13407A681268B9690B43D3607B6824
:1040F0001B681846FFF7D1FE38617B681B681846BD
:10410000FFF7DEFEF8603B69002B5FD1FB68002BF8
:104110005CD17B681B7D9A037B68DB6A1343BB61C0
:104120007B681B68DA681C4B13407A681268B969AF
:104130000B43D3607B6893F83830012B30D17B6818
:104140005B6A002B7B681B681A69144B13407A6802
:10415000D26B013A11047A68126C11437A68526C7E
:1041600011437A68926C0A431A437B681B6842F0D9
:1041700001021A611CE000BF40010024632D3E05CE
:10418000002002400021024000600258002302404B
:104190000063025803C0F0FFFCBFFFFF1EF800FCE5
:1041A0007B681B681A697B681B6822F001021A6130
:1041B0007B681B681B6923F070417B685A6B7B68C6
:1041C0001B680A431A61786800F08CFB7B68DB6827
:1041D000012B0CD17B681B681B6B23F00F017B68E4
:1041E0009B695A1E7B681B680A431A6307E07B6859
:1041F0001B681A6B7B681B6822F00F021A637B68CE
:104200005B6D23F0030343F001027B685A6507E00E
:104210007B685B6D43F010027B685A650123FB7776
:10422000FB7F18462437BD4690BD00BF90B5A1B0B6
:1042300000AF78603960002387F87F300023BB60CF
:104240003B68DB68654A93427B6893F85030012BEA
:1042500001D102232EE37B68012283F850207B6882
:104260001B681846FFF719FE0346002B40F0138326
:104270003B681B68002B2CDB3B681B68C3F31303F4
:10428000002B08D13B681B689B0E03F01F03012223
:1042900002FA03F316E03B681B687B667B6E93FAB9
:1042A000A3F33B663B6EBB66BB6E002B01D12023A4
:1042B00003E0BB6EB3FA83F3DBB203F01F0301220A
:1042C00002FA03F37A681268D1697A6812680B43BC
:1042D000D3617B6818683B6859683B681B681A465D
:1042E000FFF7FEFC7B681B681846FFF7D6FDB86732
:1042F0007B681B681846FFF7E3FD7867BB6F002BF0
:1043000040F0B8807B6F002B40F0B4807B68186869
:104310003B6819683B689B681A46FFF70DFD304BF8
:104320001B6803F07043B3F1805F0BD13B685A699F
:104330007B681B68DB689B0803F007035B0002FADD
:1043400003F31DE07B681B68DB6803F01003002BA0
:104350000BD13B685A697B681B68DB689B0803F0DC
:1043600007035B0002FA03F30AE03B685A697B68C3
:104370001B68DB689B0803F004035B0002FA03F38D
:104380003B673B681B69042B2CD07B6818683B6833
:1043900019693B681A683B6FFFF74EFC7B68186829
:1043A0003B6819693B685B7E012B02D14FF00043EB
:1043B00000E000231A46FFF778FC7B6818683B682A
:1043C00019693B681B7E012B02D14FF4006300E0AA
:1043D00000231A46FFF750FC4CE000BF0000FF47E7
:1043E0000010005C7B681B681B6E03F0F8423B68A2
:1043F0001B689B069A4207D17B681B681A6E7B6814
:104400001B6822F000421A667B681B685B6E03F033
:10441000F8423B681B689B069A4207D17B681B6881
:104420005A6E7B681B6822F000425A667B681B68E4
:104430009B6E03F0F8423B681B689B069A4207D1CB
:104440007B681B689A6E7B681B6822F000429A6644
:104450007B681B68DB6E03F0F8423B681B689B06B9
:104460009A4207D17B681B68DA6E7B681B6822F072
:104470000042DA667B681B681846FFF7FBFC0346C0
:10448000002B40F011827B6818683B6819683B6814
:10449000DB681A46FFF77CFC3B68DB68A14A934265
:1044A00040F02E817B6818683B681B68C3F31303D8
:1044B000002B0BD13B681B689B0E013303F01F03DD
:1044C000092B94BF01230023DBB219E03B681B6872
:1044D000BB65BB6D93FAA3F37B657B6DFB65FB6DE1
:1044E000002B01D1202303E0FB6DB3FA83F3DBB291
:1044F000013303F01F03092B94BF01230023DBB218
:10450000002B79D03B681B68C3F31303002B07D142
:104510003B681B689B0E01339B0603F0F84215E0D5
:104520003B681B68FB64FB6C93FAA3F3BB64BB6C36
:104530003B653B6D002B01D1202303E03B6DB3FABB
:1045400083F3DBB201339B0603F0F8423B681B6840
:10455000C3F31303002B09D13B681B689B0E013387
:1045600003F01F03012101FA03F317E03B681B6806
:104570003B643B6C93FAA3F3FB63FB6B7B647B6C48
:10458000002B01D1202303E07B6CB3FA83F3DBB271
:10459000013303F01F03012101FA03F342EA03018F
:1045A0003B681B68C3F31303002B0AD13B681B68ED
:1045B0009B0E013303F01F0213465B0013441B05DF
:1045C00018E03B681B687B637B6B93FAA3F33B6348
:1045D0003B6BBB63BB6B002B01D1202303E0BB6BA8
:1045E000B3FA83F3DBB2013303F01F0213465B001F
:1045F00013441B050B437EE03B681B68C3F31303A6
:10460000002B07D13B681B689B0E01339B0603F010
:10461000F84215E03B681B68BB62BB6A93FAA3F3E0
:104620007B627B6AFB62FB6A002B01D1202303E0E3
:10463000FB6AB3FA83F3DBB201339B0603F0F84263
:104640003B681B68C3F31303002B09D13B681B684D
:104650009B0E013303F01F03012101FA03F317E05E
:104660003B681B68FB61FB6993FAA3F3BB61BB6901
:104670003B623B6A002B01D1202303E03B6AB3FA83
:1046800083F3DBB2013303F01F03012101FA03F3CB
:1046900042EA03013B681B68C3F31303002B0DD1EF
:1046A0003B681B689B0E013303F01F0213465B003F
:1046B00013441E3B1B0543F000731BE03B681B6863
:1046C0003B613B6993FAA3F3FB60FB687B617B6909
:1046D000002B01D1202303E07B69B3FA83F3DBB223
:1046E000013303F01F0213465B0013441E3B1B05FE
:1046F00043F000730B433A6892681946FFF71CFBBE
:104700003B681B68002B80F2CF807B681B68064AE1
:10471000934204D07B681B68044A93420AD1044B3D
:1047200009E000BF0000FF470020024000210240D6
:1047300000230240614B1846FFF770FAF8667B6869
:104740001B685F4A934204D07B681B685D4A9342B2
:104750000ED15B48FFF78EFB04465A48FFF78AFBF1
:1047600003462343002B0CBF01230023DBB208E0E8
:104770005548FFF77FFB0346002B0CBF01230023A6
:10478000DBB2002B7DD03B681B68504A934230D18E
:10479000FB6E03F40003002B2BD17B681B684A4A95
:1047A000934240F081807B681B68454A934204D065
:1047B0007B681B68434A934201D1454A00E03F4A67
:1047C000FB6E43F4000319461046FFF714FA414B01
:1047D0001B689B09404AA2FB03239B0901335B0032
:1047E000BB6002E0BB68013BBB60BB68002BF9D13A
:1047F0005AE03B681B68394A93421ED1FB6E03F0B6
:104800008073002B19D17B681B682F4A93424BD1D0
:104810007B681B682A4A934204D07B681B68294A3C
:10482000934201D12A4A00E0244AFB6E43F0807390
:1048300019461046FFF7DFF936E03B681B68284A47
:10484000934231D1FB6E03F48003002B2CD17B68A3
:104850001B681D4A934227D17B681B68184A934204
:1048600004D07B681B68174A934201D1184A00E0C4
:10487000124AFB6E43F4800319461046FFF7BBF95A
:1048800012E07B685B6D43F020027B685A65012370
:1048900087F87F3008E07B685B6D43F020027B681F
:1048A0005A65012387F87F307B68002283F8502007
:1048B00097F87F3018468437BD4690BD0063025894
:1048C000002002400021024000600258000084CB1A
:1048D0000023024040010024632D3E05000052C722
:1048E0000000B8CF80B584B000AF78607B681B68EB
:1048F0007A4A934204D07B681B68794A934209D173
:10490000784B9B6803F44033002B14BF0123002332
:10491000DBB208E0744B9B6803F44033002B14BFF8
:1049200001230023DBB2002B1CD001F0BFFFF86095
:104930007B685B68B3F5403F10D0B3F5403F73D858
:10494000B3F5803F02D0B3F5003F6DD17B685B6863
:104950001B0CFA68B2FBF3F3FB6068E0FB689B0892
:10496000FB6064E04FF400204FF0000103F004FA14
:10497000F8607B685B68B3F5301F51D0B3F5301F2A
:1049800054D8B3F5201F47D0B3F5201F4ED8B3F548
:10499000101F3DD0B3F5101F48D8B3F5001F33D01A
:1049A000B3F5001F42D8B3F5E01F29D0B3F5E01FDF
:1049B0003CD8B3F5C01F1AD0B3F5C01F36D8B3F535
:1049C000A01F14D0B3F5A01F30D8B3F5801F0ED0B0
:1049D000B3F5801F2AD8B3F5402F08D0B3F5402F88
:1049E00024D8B3F5802F02D0B3F5002F1ED17B68F9
:1049F0005B689B0C5B00FA68B2FBF3F3FB6016E0AC
:104A0000FB681B09FB6012E0FB685B09FB600EE0C2
:104A1000FB689B09FB600AE0FB68DB09FB6006E0C2
:104A2000FB681B0AFB6002E000BF00E000BFFFF76D
:104A3000C3F8034641F20302934215D8FB682B4AA0
:104A4000934208D97B681B689A687B681B6842F4AC
:104A500080729A603EE07B681B689A687B681B687E
:104A600022F480729A6035E0FB685B08FB60FB68AB
:104A70001F4A934208D87B681B689A687B681B684A
:104A800022F440729A6025E0FB681A4A93420AD8E1
:104A90007B681B689B6823F440727B681B6842F448
:104AA00080729A6016E0FB68134A93420AD87B68CA
:104AB0001B689B6823F440727B681B6842F4007299
:104AC0009A6007E07B681B689A687B681B6842F401
:104AD00040729A6000BF1037BD4680BD0020024082
:104AE000002102400023024000630258002D3101E2
:104AF000105E5F0020BCBE0040787D0180B483B0B2
:104B000000AF78607B689B6803F00103012B01D143
:104B1000012300E0002318460C37BD465DF8047BF6
:104B2000704780B483B000AF78607B689B6803F007
:104B30000403042B01D1012300E0002318460C37A5
:104B4000BD465DF8047B704790B59FB000AF7860BC
:104B50003960002387F877307B6893F85030012B59
:104B600001D10223BEE07B68012283F8502000239C
:104B7000FB6500233B667B681B685C4A934202D15D
:104B80005B4BBB6001E00023BB60BB68002B0BD11B
:104B90007B685B6D43F020027B685A657B6800226E
:104BA00083F8502001239DE0BB681846FFF7B9FF4A
:104BB00038677B681B681846FFF7B3FF0346002B76
:104BC0007FD13B6F002B7CD17B681B68474A9342A7
:104BD00004D07B681B68464A934201D1454B00E0F4
:104BE000454BFB663B681B68002B39D0FB6E9B680E
:104BF00023F440423B685B681A43FB6E9A607B6813
:104C00001B683A4A934204D07B681B68384A934237
:104C10000ED13648FFF772FF04463548FFF76EFFA6
:104C200003462343002B0CBF01230023DBB208E023
:104C30003248FFF763FF0346002B0CBF012300231C
:104C4000DBB2002B47D0FB6E9A682D4B13403A68BD
:104C500011683A6892680A431A43FB6E9A603AE018
:104C6000FB6E9B6823F44042FB6E9A607B681B6876
:104C70001E4A934204D07B681B681D4A93420ED1A2
:104C80001A48FFF73BFF04461948FFF737FF034672
:104C90002343002B0CBF01230023DBB208E017489D
:104CA000FFF72CFF0346002B0CBF01230023DBB2D0
:104CB000002B10D0FB6E9A68114B1340FA6E936074
:104CC00009E07B685B6D43F020027B685A65012335
:104CD00087F8773000E000BF7B68002283F850201F
:104CE00097F8773018467C37BD4690BD00200240CB
:104CF0000021024000230240006302580060025875
:104D0000E0F0FFFF80B485B000AF78607B6803F00F
:104D10000703FB600B4BDB68BB60BA684FF6FF0311
:104D20001340BB60FB681A02BB681A43064B13436F
:104D3000BB60044ABB68D36000BF1437BD465DF852
:104D4000047B704700ED00E00000FA0580B400AF7E
:104D5000044BDB681B0A03F007031846BD465DF8E9
:104D6000047B704700ED00E080B483B000AF0346E1
:104D7000FB80B7F90630002B0BDBFB8803F01F022A
:104D80000749B7F906305B09012000FA02F241F841
:104D9000232000BF0C37BD465DF8047B704700BF81
:104DA00000E100E080B483B000AF03463960FB80CF
:104DB000B7F90630002B0ADB3B68DAB20C49B7F9C9
:104DC00006301201D2B20B4483F800230AE03B689C
:104DD000DAB20849FB8803F00F03043B1201D2B298
:104DE0000B441A7600BF0C37BD465DF8047B704754
:104DF00000E100E000ED00E080B489B000AFF860B1
:104E0000B9607A60FB6803F00703FB61FB69C3F1DB
:104E10000703042B28BF0423BB61FB690433062B63
:104E200002D9FB69033B00E000237B614FF0FF32B6
:104E3000BB6902FA03F3DA43BB681A407B699A4004
:104E40004FF0FF317B6901FA03F3D9437B680B40D4
:104E5000134318462437BD465DF8047B70470000B5
:104E600080B582B000AF78607B68013BB3F1807F92
:104E700001D301230FE00A4A7B68013B53600F21F5
:104E80004FF0FF30FFF78EFF054B00229A60044B76
:104E900007221A60002318460837BD4680BD00BFB0
:104EA00010E000E080B582B000AF78607868FFF76E
:104EB00029FF00BF0837BD4680BD80B586B000AF72
:104EC0000346B9607A60FB81FFF740FF78617A683A
:104ED000B9687869FFF790FF0246B7F90E301146BE
:104EE0001846FFF75FFF00BF1837BD4680BD80B58D
:104EF00082B000AF0346FB80B7F906301846FFF7D3
:104F000033FF00BF0837BD4680BD80B582B000AF1B
:104F100078607868FFF7A4FF034618460837BD4657
:104F200080BD000080B58AB000AFF860B9607A60DB
:104F3000BB683B627B68FB610823FB75404B1B7DB4
:104F4000012B01D1022376E03D4B01221A75BB688B
:104F5000B3F1006F06D3BB68B3F1016F02D2012336
:104F6000BB610CE0BB68B3F1016F06D3BB68B3F162
:104F7000026F02D20223BB6101E001235BE0304BF0
:104F800000229A61B9694CF2503000F0C1F8034632
:104F900087F8273097F82730002B47D1BB69012BC2
:104FA00006D1284BDB68274A43F00203D36007E0B1
:104FB000244BD3F80C31234A43F00203C2F80C31DE
:104FC000BFF36F8F00BFBFF34F8F00BFFB691A683D
:104FD0003B6A1A603B6A04333B62FB690433FB6142
:104FE000FB7D013BFB75FB7D002BEFD1BFF36F8F8A
:104FF00000BFBFF34F8F00BFB9694CF2503000F0D3
:1050000087F8034687F82730BB69012B06D10D4B83
:10501000DB680C4A23F00203D36007E0094BD3F8A6
:105020000C31084A23F00203C2F80C31044B002271
:105030001A7597F8273018462837BD4680BD00BF3F
:10504000A40F00240020005280B400AF184BDB688E
:1050500003F00103002B0DD0154B164A5A60144B78
:10506000154A5A60124BDB6803F00103002B01D094
:10507000012318E00E4BD3F80C3103F00103002B91
:1050800010D00B4B0B4AC3F80421094B0A4AC3F852
:105090000421074BD3F80C3103F00103002B01D09E
:1050A000012300E000231846BD465DF8047B7047ED
:1050B0000020005223016745AB89EFCD80B400AFDB
:1050C000124BDB68114A43F00103D3600F4BDB68DE
:1050D00003F00103002B01D1012311E00B4BD3F8A6
:1050E0000C310A4A43F00103C2F80C31074BD3F8E4
:1050F0000C3103F00103002B01D1012300E0002358
:105100001846BD465DF8047B704700BF0020005282
:1051100080B586B000AF7860396004237B610023DE
:105120003B61FEF73DFDF8603B68022B13D1414B1C
:105130007B6110E07B68B3F1FF3F0CD0FEF730FDE0
:105140000246FB68D31A7A689A4202D37B68002B26
:1051500001D103236AE07A69374B13407A699A4296
:105160000AD1364B1A697B6913407A699A420CBF9F
:1051700001230023DBB20CE0304BD3F81031DA43CB
:105180007B69134023F00043002B0CBF0123002355
:10519000DBB2002BCED13B68012B05D1274B1A691E
:1051A000274B13403B6107E0244BD3F81021244BDD
:1051B000134043F000433B613B6923F00043002B65
:1051C00017D0204B9A693B6913431E4A93613A6991
:1051D000194B13403A699A4203D1184A3B6953610B
:1051E00005E0164A3B6923F00043C2F8143101235D
:1051F0001CE03B68012B0BD1104B1B6903F480337F
:10520000B3F5803F11D10D4B4FF480325A610CE061
:105210000A4BD3F8103103F48033B3F5803F04D147
:10522000064B4FF48032C3F8142100231846183778
:10523000BD4680BD040000800F00EF1F002000521B
:105240000000EE17A40F002480B584B000AF786092
:1052500039600023FB735E4B1B7D012B01D10223C0
:10526000B2E05B4B01221A75594B00229A617B68B0
:105270005B6803F00103002B09D001214CF2503090
:10528000FFF746FF0346002B01D00123FB737B6829
:105290005B6803F00203002B09D002214CF250306E
:1052A000FFF736FF0346002B01D00123FB73FB7B86
:1052B000002B40F085807B681B68012B36D17B6812
:1052C0001A697B685B681946104600F087F87B68AE
:1052D0005B6803F00103002B0FD001214CF250302A
:1052E000FFF716FF0346002B01D00123FB73394B58
:1052F000DB68384A23F00803D3607B685B6803F0FF
:105300000203002B5CD002214CF25030FFF700FF6B
:105310000346002B01D00123FB732E4BD3F80C3135
:105320002C4A23F00803C2F80C3149E03B684FF0E7
:10533000FF321A607B689B68BB6039E07B68596804
:105340007B681B691A46B86800F0B2F87B685B6836
:1053500003F00103002B0CD001214CF25030FFF779
:10536000D7FE0346FB731B4BDA681A491A4B1340EE
:10537000CB607B685B6803F00203002B0ED0022138
:105380004CF25030FFF7C4FE0346FB73114BD3F8C9
:105390000C211049104B1340C1F80C31FB7B002B42
:1053A00003D03B68BA681A600AE0BB680133BB608F
:1053B0007B68DA687B689B681344BA689A42BDD3FD
:1053C000034B00221A75FB7B18461037BD4680BD83
:1053D000A40F002400200052FBF8FFFF80B483B02C
:1053E00000AF786039603B6803F00303032B22D1E0
:1053F0002E4BDB682D4A23F03003D3602B4BD3F8C0
:105400000C312A4A23F03003C2F80C31274BDA68FA
:1054100026497B681343CB60244BD3F80C212349E6
:105420007B681343C1F80C31204B9B691F4A43F042
:105430001003936133E03B6803F00103002B11D0AC
:105440001A4BDB68194A23F03003D360174BDA6834
:1054500016497B681343CB60144BDB68134A43F057
:105460008803D3603B6803F00203002B17D00F4B77
:10547000D3F80C310D4A23F03003C2F80C310B4B3A
:10548000D3F80C2109497B681343C1F80C31074B51
:10549000D3F80C31054A43F08803C2F80C3100BF41
:1054A0000C37BD465DF8047B704700BF00200052FA
:1054B00080B485B000AFF860B9607A60BB6803F073
:1054C0000103002B10D0184BDB68174A23F4E66366
:1054D000D360154BDA68FB6819027B680B431343F2
:1054E000114A43F08403D360BB6803F00203002B2E
:1054F00014D00D4BD3F80C310B4A23F4E663C2F8F9
:105500000C31094BD3F80C21FB6819027B680B4363
:105510001343054A43F08403C2F80C3100BF14372B
:10552000BD465DF8047B70470020005280B489B00E
:1055300000AF786039600023FB61894B7B6194E1A7
:105540003B681A680121FB6901FA03F313403B61D0
:105550003B69002B00F086813B685B6803F0030326
:10556000012B05D03B685B6803F00303022B30D1AD
:105570007B689B68BB61FB695B00032202FA03F353
:10558000DB43BA691340BB613B68DA68FB695B00C7
:1055900002FA03F3BA691343BB617B68BA699A6084
:1055A0007B685B68BB610122FB6902FA03F3DB43A2
:1055B000BA691340BB613B685B681B0903F00102D9
:1055C000FB6902FA03F3BA691343BB617B68BA69EA
:1055D0005A603B685B6803F00303032B17D07B68BA
:1055E000DB68BB61FB695B00032202FA03F3DB4368
:1055F000BA691340BB613B689A68FB695B0002FAB9
:1056000003F3BA691343BB617B68BA69DA603B682C
:105610005B6803F00303022B23D1FB69DA087B6884
:10562000083253F82230BB61FB6903F007039B008B
:105630000F2202FA03F3DB43BA691340BB613B68F4
:105640001A69FB6903F007039B0002FA03F3BA69C6
:105650001343BB61FB69DA087B680832B96943F818
:1056600022107B681B68BB61FB695B00032202FAA6
:1056700003F3DB43BA691340BB613B685B6803F02B
:105680000302FB695B0002FA03F3BA691343BB61CF
:105690007B68BA691A603B685B6803F44033002B8F
:1056A00000F0E0802F4BD3F8F4302E4A43F0020391
:1056B000C2F8F4302B4BD3F8F43003F00203FB6054
:1056C000FB68294AFB699B08023352F82330BB610F
:1056D000FB6903F003039B000F2202FA03F3DB4391
:1056E000BA691340BB617B68204A934252D07B6801
:1056F0001F4A934231D07B681E4A93422BD07B686D
:105700001D4A934225D07B681C4A93421FD07B6878
:105710001B4A934219D07B681A4A934213D07B6884
:10572000194A93420DD07B68184A934207D07B6890
:10573000174A934201D109232DE00A232BE00823C5
:1057400029E0072327E0062325E0052323E004239F
:1057500021E003231FE002231DE001231BE000BF23
:10576000800000580044025800040058000002580D
:105770000004025800080258000C02580010025899
:105780000014025800180258001C02580020025849
:10579000002402580023FA6902F0030292009340A9
:1057A000BA691343BB613849FB699B080233BA6984
:1057B00041F823204FF0B0431B68BB613B69DB43DA
:1057C000BA691340BB613B685B6803F48013002B2C
:1057D00003D0BA693B691343BB614FF0B042BB6968
:1057E00013604FF0B0435B68BB613B69DB43BA6950
:1057F0001340BB613B685B6803F40013002B03D0CC
:10580000BA693B691343BB614FF0B042BB69536057
:105810007B695B68BB613B69DB43BA691340BB6171
:105820003B685B6803F40033002B03D0BA693B6923
:105830001343BB617B69BA695A607B691B68BB61B2
:105840003B69DB43BA691340BB613B685B6803F4A7
:105850008033002B03D0BA693B691343BB617B697A
:10586000BA691A60FB690133FB613B681A68FB691E
:1058700022FA03F3002B7FF463AE00BF00BF24378E
:10588000BD465DF8047B70470004005880B485B0C5
:1058900000AF78600B467B807B681A697B88134079
:1058A000002B02D00123FB7301E00023FB73FB7B81
:1058B00018461437BD465DF8047B704780B483B04A
:1058C00000AF78600B467B8013467B707B78002BA3
:1058D00003D07A887B689A6103E07B881A047B682E
:1058E0009A6100BF0C37BD465DF8047B704780B5F8
:1058F00082B000AF0346FB804FF0B043D3F888205E
:10590000FB881340002B08D04FF0B042FB88C2F850
:105910008830FB881846FDF7AFF800BF0837BD4652
:1059200080BD000080B584B000AF7860194BDB68A3
:1059300003F00403042B0AD0164BDB6803F00703C3
:105940007A689A4201D001231FE000231DE0114B29
:10595000DB6823F007020F497B681343CB60FEF737
:105960001FF9F86009E0FEF71BF90246FB68D31A3D
:10597000B3F57A7F01D9012307E0064B5B6803F496
:105980000053B3F5005FEED1002318461037BD4633
:1059900080BD00BF0048025880B58CB000AF786071
:1059A0007B68002B02D1012300F048BC7B681B6898
:1059B00003F00103002B00F08880994B1B6903F072
:1059C0003803FB62964B9B6ABB62FB6A102B07D0C5
:1059D000FB6A182B11D1BB6A03F00303022B0CD115
:1059E0008F4B1B6803F40033002B6DD07B685B6822
:1059F000002B69D1012300F021BC7B685B68B3F503
:105A0000803F06D1864B1B68854A43F48033136080
:105A10002EE07B685B68002B0CD1814B1B68804AB1
:105A200023F4803313607E4B1B687D4A23F480236C
:105A300013601DE07B685B68B3F5A02F0CD1784B39
:105A40001B68774A43F480231360754B1B68744AC4
:105A500043F4803313600BE0714B1B68704A23F4EE
:105A6000803313606E4B1B686D4A23F480231360F0
:105A70007B685B68002B13D0FEF792F8786208E031
:105A8000FEF78EF802467B6AD31A642B01D90323F2
:105A9000D4E3634B1B6803F40033002BF0D014E015
:105AA000FEF77EF8786208E0FEF77AF802467B6A35
:105AB000D31A642B01D90323C0E3594B1B6803F4A9
:105AC0000033002BF0D100E000BF7B681B6803F0BF
:105AD0000203002B00F0CA80514B1B6903F038030E
